{
  "contractName": "Voting",
  "abi": [
    {
      "inputs": [],
      "stateMutability": "nonpayable",
      "type": "constructor"
    },
    {
      "inputs": [
        {
          "internalType": "uint256",
          "name": "",
          "type": "uint256"
        }
      ],
      "name": "candidates",
      "outputs": [
        {
          "internalType": "string",
          "name": "id",
          "type": "string"
        },
        {
          "internalType": "string",
          "name": "name",
          "type": "string"
        },
        {
          "internalType": "uint256",
          "name": "voteCount",
          "type": "uint256"
        }
      ],
      "stateMutability": "view",
      "type": "function",
      "constant": true
    },
    {
      "inputs": [
        {
          "internalType": "uint256",
          "name": "",
          "type": "uint256"
        }
      ],
      "name": "elections",
      "outputs": [
        {
          "internalType": "string",
          "name": "id",
          "type": "string"
        },
        {
          "internalType": "uint256",
          "name": "votes",
          "type": "uint256"
        }
      ],
      "stateMutability": "view",
      "type": "function",
      "constant": true
    },
    {
      "inputs": [],
      "name": "isAdmin",
      "outputs": [
        {
          "internalType": "bool",
          "name": "",
          "type": "bool"
        }
      ],
      "stateMutability": "view",
      "type": "function",
      "constant": true
    },
    {
      "inputs": [],
      "name": "isVoter",
      "outputs": [
        {
          "internalType": "bool",
          "name": "",
          "type": "bool"
        }
      ],
      "stateMutability": "view",
      "type": "function",
      "constant": true
    },
    {
      "inputs": [
        {
          "internalType": "string",
          "name": "pwd",
          "type": "string"
        }
      ],
      "name": "adminLogin",
      "outputs": [
        {
          "internalType": "int256",
          "name": "",
          "type": "int256"
        }
      ],
      "stateMutability": "view",
      "type": "function",
      "constant": true
    },
    {
      "inputs": [
        {
          "internalType": "string",
          "name": "id",
          "type": "string"
        }
      ],
      "name": "addElection",
      "outputs": [],
      "stateMutability": "nonpayable",
      "type": "function"
    },
    {
      "inputs": [
        {
          "internalType": "string",
          "name": "eId",
          "type": "string"
        }
      ],
      "name": "getElection",
      "outputs": [
        {
          "components": [
            {
              "internalType": "string",
              "name": "id",
              "type": "string"
            },
            {
              "internalType": "string",
              "name": "name",
              "type": "string"
            },
            {
              "internalType": "uint256",
              "name": "voteCount",
              "type": "uint256"
            }
          ],
          "internalType": "struct Voting.Candidate[]",
          "name": "",
          "type": "tuple[]"
        },
        {
          "internalType": "address[]",
          "name": "",
          "type": "address[]"
        },
        {
          "internalType": "uint256",
          "name": "",
          "type": "uint256"
        }
      ],
      "stateMutability": "view",
      "type": "function",
      "constant": true
    },
    {
      "inputs": [
        {
          "internalType": "string",
          "name": "nationalId",
          "type": "string"
        },
        {
          "internalType": "string",
          "name": "pwd",
          "type": "string"
        }
      ],
      "name": "addUser",
      "outputs": [],
      "stateMutability": "nonpayable",
      "type": "function"
    },
    {
      "inputs": [
        {
          "internalType": "address",
          "name": "_voter",
          "type": "address"
        }
      ],
      "name": "verifyUser",
      "outputs": [],
      "stateMutability": "nonpayable",
      "type": "function"
    },
    {
      "inputs": [
        {
          "internalType": "string",
          "name": "nationalId",
          "type": "string"
        },
        {
          "internalType": "string",
          "name": "pwd",
          "type": "string"
        }
      ],
      "name": "login",
      "outputs": [
        {
          "components": [
            {
              "internalType": "address",
              "name": "key",
              "type": "address"
            },
            {
              "internalType": "string",
              "name": "nationalId",
              "type": "string"
            },
            {
              "internalType": "string",
              "name": "pwd",
              "type": "string"
            },
            {
              "internalType": "bool",
              "name": "isActive",
              "type": "bool"
            }
          ],
          "internalType": "struct Voting.User",
          "name": "",
          "type": "tuple"
        }
      ],
      "stateMutability": "view",
      "type": "function",
      "constant": true
    },
    {
      "inputs": [],
      "name": "getUsers",
      "outputs": [
        {
          "components": [
            {
              "internalType": "address",
              "name": "key",
              "type": "address"
            },
            {
              "internalType": "string",
              "name": "nationalId",
              "type": "string"
            },
            {
              "internalType": "string",
              "name": "pwd",
              "type": "string"
            },
            {
              "internalType": "bool",
              "name": "isActive",
              "type": "bool"
            }
          ],
          "internalType": "struct Voting.User[]",
          "name": "",
          "type": "tuple[]"
        }
      ],
      "stateMutability": "view",
      "type": "function",
      "constant": true
    },
    {
      "inputs": [
        {
          "internalType": "string",
          "name": "id",
          "type": "string"
        },
        {
          "internalType": "string",
          "name": "name",
          "type": "string"
        },
        {
          "internalType": "string",
          "name": "eId",
          "type": "string"
        }
      ],
      "name": "addCandidate",
      "outputs": [],
      "stateMutability": "nonpayable",
      "type": "function"
    },
    {
      "inputs": [],
      "name": "getCandidates",
      "outputs": [
        {
          "components": [
            {
              "internalType": "string",
              "name": "id",
              "type": "string"
            },
            {
              "internalType": "string",
              "name": "name",
              "type": "string"
            },
            {
              "internalType": "uint256",
              "name": "voteCount",
              "type": "uint256"
            }
          ],
          "internalType": "struct Voting.Candidate[]",
          "name": "",
          "type": "tuple[]"
        }
      ],
      "stateMutability": "view",
      "type": "function",
      "constant": true
    },
    {
      "inputs": [
        {
          "internalType": "string",
          "name": "id",
          "type": "string"
        }
      ],
      "name": "getCandidateVotes",
      "outputs": [
        {
          "internalType": "uint256",
          "name": "",
          "type": "uint256"
        }
      ],
      "stateMutability": "view",
      "type": "function",
      "constant": true
    },
    {
      "inputs": [
        {
          "internalType": "string",
          "name": "cId",
          "type": "string"
        },
        {
          "internalType": "string",
          "name": "eId",
          "type": "string"
        }
      ],
      "name": "vote",
      "outputs": [],
      "stateMutability": "nonpayable",
      "type": "function"
    },
    {
      "inputs": [
        {
          "internalType": "string",
          "name": "_eId",
          "type": "string"
        }
      ],
      "name": "getResult",
      "outputs": [
        {
          "components": [
            {
              "internalType": "string",
              "name": "id",
              "type": "string"
            },
            {
              "internalType": "string",
              "name": "name",
              "type": "string"
            },
            {
              "internalType": "uint256",
              "name": "voteCount",
              "type": "uint256"
            }
          ],
          "internalType": "struct Voting.Candidate[]",
          "name": "",
          "type": "tuple[]"
        }
      ],
      "stateMutability": "view",
      "type": "function",
      "constant": true
    }
  ],
  "bytecode": "0x60806040523480156200001157600080fd5b5033600860006101000a81548173ffffffffffffffffffffffffffffffffffffffff021916908373ffffffffffffffffffffffffffffffffffffffff16021790555062000099600860009054906101000a900473ffffffffffffffffffffffffffffffffffffffff166000620000e66401000000000262001afe179091906401000000009004565b6040518060400160405280600581526020017f61646d696e00000000000000000000000000000000000000000000000000000081525060099081620000df9190620004ec565b50620006ee565b620001018282620001a2640100000000026401000000009004565b1562000144576040517f08c379a00000000000000000000000000000000000000000000000000000000081526004016200013b9062000634565b60405180910390fd5b60018260000160008373ffffffffffffffffffffffffffffffffffffffff1673ffffffffffffffffffffffffffffffffffffffff16815260200190815260200160002060006101000a81548160ff0219169083151502179055505050565b60008073ffffffffffffffffffffffffffffffffffffffff168273ffffffffffffffffffffffffffffffffffffffff160362000215576040517f08c379a00000000000000000000000000000000000000000000000000000000081526004016200020c90620006cc565b60405180910390fd5b8260000160008373ffffffffffffffffffffffffffffffffffffffff1673ffffffffffffffffffffffffffffffffffffffff16815260200190815260200160002060009054906101000a900460ff16905092915050565b600081519050919050565b7f4e487b7100000000000000000000000000000000000000000000000000000000600052604160045260246000fd5b7f4e487b7100000000000000000000000000000000000000000000000000000000600052602260045260246000fd5b60006002820490506001821680620002ee57607f821691505b602082108103620003045762000303620002a6565b5b50919050565b60008190508160005260206000209050919050565b60006020601f8301049050919050565b60008160020a8302905092915050565b600060088302620003717fffffffffffffffffffffffffffffffffffffffffffffffffffffffffffffffff826200032f565b6200037d86836200032f565b95508019841693508086168417925050509392505050565b6000819050919050565b6000819050919050565b6000620003ca620003c4620003be8462000395565b6200039f565b62000395565b9050919050565b6000819050919050565b620003e683620003a9565b620003fe620003f582620003d1565b8484546200033f565b825550505050565b600090565b6200041562000406565b62000422818484620003db565b505050565b5b818110156200044a576200043e6000826200040b565b60018101905062000428565b5050565b601f821115620004995762000463816200030a565b6200046e846200031f565b810160208510156200047e578190505b620004966200048d856200031f565b83018262000427565b50505b505050565b60008160020a8304905092915050565b6000620004c1600019846008026200049e565b1980831691505092915050565b6000620004dc8383620004ae565b9150826002028217905092915050565b620004f7826200026c565b67ffffffffffffffff81111562000513576200051262000277565b5b6200051f8254620002d5565b6200052c8282856200044e565b600060209050601f8311600181146200056457600084156200054f578287015190505b6200055b8582620004ce565b865550620005cb565b601f19841662000574866200030a565b60005b828110156200059e5784890151825560018201915060208501945060208101905062000577565b86831015620005be5784890151620005ba601f891682620004ae565b8355505b6001600288020188555050505b505050505050565b600082825260208201905092915050565b7f526f6c65733a206163636f756e7420616c72656164792068617320726f6c6500600082015250565b60006200061c601f83620005d3565b91506200062982620005e4565b602082019050919050565b600060208201905081810360008301526200064f816200060d565b9050919050565b7f526f6c65733a206163636f756e7420697320746865207a65726f20616464726560008201527f7373000000000000000000000000000000000000000000000000000000000000602082015250565b6000620006b4602283620005d3565b9150620006c18262000656565b604082019050919050565b60006020820190508181036000830152620006e781620006a5565b9050919050565b61305780620006fe6000396000f3fe608060405234801561001057600080fd5b506004361061011c576000357c01000000000000000000000000000000000000000000000000000000009004806358467dbc116100b4578063d3c43b6211610083578063d3c43b62146102e0578063d87c4be314610310578063e8d5940d1461032e578063e962414f1461034a5761011c565b806358467dbc146102455780635e6fef0114610275578063ad71f8dc146102a6578063b6db75a0146102c25761011c565b8063358b9d97116100f0578063358b9d97146101ab5780634771b573146101c7578063498cc70d146101f95780634d813120146102295761011c565b8062ce8e3e1461012157806306a49fce1461013f578063079eaf341461015d5780633477ee2e14610179575b600080fd5b61012961037a565b6040516101369190611ee6565b60405180910390f35b61014761063f565b604051610154919061203a565b60405180910390f35b610177600480360381019061017291906121a5565b6107cc565b005b610193600480360381019061018e9190612249565b6109b7565b6040516101a2939291906122cf565b60405180910390f35b6101c560048036038101906101c09190612314565b610b01565b005b6101e160048036038101906101dc9190612314565b610b96565b6040516101f09392919061240c565b60405180910390f35b610213600480360381019061020e9190612314565b610de6565b604051610220919061203a565b60405180910390f35b610243600480360381019061023e919061247d565b611034565b005b61025f600480360381019061025a91906121a5565b611092565b60405161026c9190612514565b60405180910390f35b61028f600480360381019061028a9190612249565b6115c9565b60405161029d929190612536565b60405180910390f35b6102c060048036038101906102bb9190612566565b611685565b005b6102ca611817565b6040516102d7919061261c565b60405180910390f35b6102fa60048036038101906102f59190612314565b611832565b6040516103079190612650565b60405180910390f35b61031861189b565b604051610325919061261c565b60405180910390f35b610348600480360381019061034391906121a5565b6118b6565b005b610364600480360381019061035f9190612314565b611ad3565b604051610371919061266b565b60405180910390f35b6060600060078054905067ffffffffffffffff81111561039d5761039c61207a565b5b6040519080825280602002602001820160405280156103d657816020015b6103c3611c6d565b8152602001906001900390816103bb5790505b50905060005b60078054905081101561063757600360006007838154811061040157610400612686565b5b9060005260206000200160009054906101000a900473ffffffffffffffffffffffffffffffffffffffff1673ffffffffffffffffffffffffffffffffffffffff1673ffffffffffffffffffffffffffffffffffffffff1681526020019081526020016000206040518060800160405290816000820160009054906101000a900473ffffffffffffffffffffffffffffffffffffffff1673ffffffffffffffffffffffffffffffffffffffff1673ffffffffffffffffffffffffffffffffffffffff1681526020016001820180546104d7906126e4565b80601f0160208091040260200160405190810160405280929190818152602001828054610503906126e4565b80156105505780601f1061052557610100808354040283529160200191610550565b820191906000526020600020905b81548152906001019060200180831161053357829003601f168201915b50505050508152602001600282018054610569906126e4565b80601f0160208091040260200160405190810160405280929190818152602001828054610595906126e4565b80156105e25780601f106105b7576101008083540402835291602001916105e2565b820191906000526020600020905b8154815290600101906020018083116105c557829003601f168201915b505050505081526020016003820160009054906101000a900460ff16151515158152505082828151811061061957610618612686565b5b6020026020010181905250808061062f90612744565b9150506103dc565b508091505090565b60606005805480602002602001604051908101604052809291908181526020016000905b828210156107c35783829060005260206000209060030201604051806060016040529081600082018054610696906126e4565b80601f01602080910402602001604051908101604052809291908181526020018280546106c2906126e4565b801561070f5780601f106106e45761010080835404028352916020019161070f565b820191906000526020600020905b8154815290600101906020018083116106f257829003601f168201915b50505050508152602001600182018054610728906126e4565b80601f0160208091040260200160405190810160405280929190818152602001828054610754906126e4565b80156107a15780601f10610776576101008083540402835291602001916107a1565b820191906000526020600020905b81548152906001019060200180831161078457829003601f168201915b5050505050815260200160028201548152505081526020019060010190610663565b50505050905090565b6107e0336000611ba690919063ffffffff16565b15610820576040517f08c379a0000000000000000000000000000000000000000000000000000000008152600401610817906127d8565b60405180910390fd5b610834336001611ba690919063ffffffff16565b15610874576040517f08c379a000000000000000000000000000000000000000000000000000000000815260040161086b90612844565b60405180910390fd5b6000600360003373ffffffffffffffffffffffffffffffffffffffff1673ffffffffffffffffffffffffffffffffffffffff1681526020019081526020016000209050828160010190816108c89190612a16565b50338160000160006101000a81548173ffffffffffffffffffffffffffffffffffffffff021916908373ffffffffffffffffffffffffffffffffffffffff1602179055508181600201908161091d9190612a16565b5060008160030160006101000a81548160ff0219169083151502179055506007339080600181540180825580915050600190039060005260206000200160009091909190916101000a81548173ffffffffffffffffffffffffffffffffffffffff021916908373ffffffffffffffffffffffffffffffffffffffff1602179055506109b2336001611afe90919063ffffffff16565b505050565b600581815481106109c757600080fd5b90600052602060002090600302016000915090508060000180546109ea906126e4565b80601f0160208091040260200160405190810160405280929190818152602001828054610a16906126e4565b8015610a635780601f10610a3857610100808354040283529160200191610a63565b820191906000526020600020905b815481529060010190602001808311610a4657829003601f168201915b505050505090806001018054610a78906126e4565b80601f0160208091040260200160405190810160405280929190818152602001828054610aa4906126e4565b8015610af15780601f10610ac657610100808354040283529160200191610af1565b820191906000526020600020905b815481529060010190602001808311610ad457829003601f168201915b5050505050908060020154905083565b610b15336000611ba690919063ffffffff16565b610b54576040517f08c379a0000000000000000000000000000000000000000000000000000000008152600401610b4b90612b34565b60405180910390fd5b6000600282604051610b669190612b90565b9081526020016040518091039020905081816000019081610b879190612a16565b50600081600201819055505050565b606080600080600285604051610bac9190612b90565b908152602001604051809103902090508060030181600101826002015482805480602002602001604051908101604052809291908181526020016000905b82821015610d4a5783829060005260206000209060030201604051806060016040529081600082018054610c1d906126e4565b80601f0160208091040260200160405190810160405280929190818152602001828054610c49906126e4565b8015610c965780601f10610c6b57610100808354040283529160200191610c96565b820191906000526020600020905b815481529060010190602001808311610c7957829003601f168201915b50505050508152602001600182018054610caf906126e4565b80601f0160208091040260200160405190810160405280929190818152602001828054610cdb906126e4565b8015610d285780601f10610cfd57610100808354040283529160200191610d28565b820191906000526020600020905b815481529060010190602001808311610d0b57829003601f168201915b5050505050815260200160028201548152505081526020019060010190610bea565b50505050925081805480602002602001604051908101604052809291908181526020018280548015610dd157602002820191906000526020600020905b8160009054906101000a900473ffffffffffffffffffffffffffffffffffffffff1673ffffffffffffffffffffffffffffffffffffffff1681526020019060010190808311610d87575b50505050509150935093509350509193909250565b60606000600283604051610dfa9190612b90565b908152602001604051809103902090506000816003018054905067ffffffffffffffff811115610e2d57610e2c61207a565b5b604051908082528060200260200182016040528015610e6657816020015b610e53611cad565b815260200190600190039081610e4b5790505b50905060005b8260030180549050811015611029576004836003018281548110610e9357610e92612686565b5b9060005260206000209060030201600001604051610eb19190612c2a565b9081526020016040518091039020604051806060016040529081600082018054610eda906126e4565b80601f0160208091040260200160405190810160405280929190818152602001828054610f06906126e4565b8015610f535780601f10610f2857610100808354040283529160200191610f53565b820191906000526020600020905b815481529060010190602001808311610f3657829003601f168201915b50505050508152602001600182018054610f6c906126e4565b80601f0160208091040260200160405190810160405280929190818152602001828054610f98906126e4565b8015610fe55780601f10610fba57610100808354040283529160200191610fe5565b820191906000526020600020905b815481529060010190602001808311610fc857829003601f168201915b5050505050815260200160028201548152505082828151811061100b5761100a612686565b5b6020026020010181905250808061102190612744565b915050610e6c565b508092505050919050565b6001600360008373ffffffffffffffffffffffffffffffffffffffff1673ffffffffffffffffffffffffffffffffffffffff16815260200190815260200160002060030160006101000a81548160ff02191690831515021790555050565b61109a611c6d565b6110ae336000611ba690919063ffffffff16565b156110ee576040517f08c379a00000000000000000000000000000000000000000000000000000000081526004016110e5906127d8565b60405180910390fd5b611102336001611ba690919063ffffffff16565b611141576040517f08c379a000000000000000000000000000000000000000000000000000000000815260040161113890612c8d565b60405180910390fd5b6000600360003373ffffffffffffffffffffffffffffffffffffffff1673ffffffffffffffffffffffffffffffffffffffff1681526020019081526020016000206040518060800160405290816000820160009054906101000a900473ffffffffffffffffffffffffffffffffffffffff1673ffffffffffffffffffffffffffffffffffffffff1673ffffffffffffffffffffffffffffffffffffffff1681526020016001820180546111f3906126e4565b80601f016020809104026020016040519081016040528092919081815260200182805461121f906126e4565b801561126c5780601f106112415761010080835404028352916020019161126c565b820191906000526020600020905b81548152906001019060200180831161124f57829003601f168201915b50505050508152602001600282018054611285906126e4565b80601f01602080910402602001604051908101604052809291908181526020018280546112b1906126e4565b80156112fe5780601f106112d3576101008083540402835291602001916112fe565b820191906000526020600020905b8154815290600101906020018083116112e157829003601f168201915b505050505081526020016003820160009054906101000a900460ff1615151515815250509050836040516020016113359190612b90565b6040516020818303038152906040528051906020012081602001516040516020016113609190612b90565b604051602081830303815290604052805190602001201480156113d257508260405160200161138f9190612b90565b6040516020818303038152906040528051906020012081604001516040516020016113ba9190612b90565b60405160208183030381529060405280519060200120145b156113e057809150506115c3565b600360008073ffffffffffffffffffffffffffffffffffffffff1673ffffffffffffffffffffffffffffffffffffffff1681526020019081526020016000206040518060800160405290816000820160009054906101000a900473ffffffffffffffffffffffffffffffffffffffff1673ffffffffffffffffffffffffffffffffffffffff1673ffffffffffffffffffffffffffffffffffffffff168152602001600182018054611490906126e4565b80601f01602080910402602001604051908101604052809291908181526020018280546114bc906126e4565b80156115095780601f106114de57610100808354040283529160200191611509565b820191906000526020600020905b8154815290600101906020018083116114ec57829003601f168201915b50505050508152602001600282018054611522906126e4565b80601f016020809104026020016040519081016040528092919081815260200182805461154e906126e4565b801561159b5780601f106115705761010080835404028352916020019161159b565b820191906000526020600020905b81548152906001019060200180831161157e57829003601f168201915b505050505081526020016003820160009054906101000a900460ff1615151515815250509150505b92915050565b600681815481106115d957600080fd5b90600052602060002090600502016000915090508060000180546115fc906126e4565b80601f0160208091040260200160405190810160405280929190818152602001828054611628906126e4565b80156116755780601f1061164a57610100808354040283529160200191611675565b820191906000526020600020905b81548152906001019060200180831161165857829003601f168201915b5050505050908060020154905082565b611699336000611ba690919063ffffffff16565b6116d8576040517f08c379a00000000000000000000000000000000000000000000000000000000081526004016116cf90612cf9565b60405180910390fd5b60006004846040516116ea9190612b90565b908152602001604051809103902090508381600001908161170b9190612a16565b508281600101908161171d9190612a16565b5060008160020181905550600060028360405161173a9190612b90565b90815260200160405180910390209050806003018290806001815401808255809150506001900390600052602060002090600302016000909190919091506000820181600001908161178c9190612d2f565b50600182018160010190816117a19190612d2f565b506002820154816002015550506005829080600181540180825580915050600190039060005260206000209060030201600090919091909150600082018160000190816117ee9190612d2f565b50600182018160010190816118039190612d2f565b506002820154816002015550505050505050565b600061182d336000611ba690919063ffffffff16565b905090565b600060096040516020016118469190612c2a565b604051602081830303815290604052805190602001208260405160200161186d9190612b90565b60405160208183030381529060405280519060200120036118915760019050611896565b600090505b919050565b60006118b1336001611ba690919063ffffffff16565b905090565b6118ca336001611ba690919063ffffffff16565b611909576040517f08c379a000000000000000000000000000000000000000000000000000000000815260040161190090612e63565b60405180910390fd5b600060028260405161191b9190612b90565b908152602001604051809103902090508060040160003373ffffffffffffffffffffffffffffffffffffffff1673ffffffffffffffffffffffffffffffffffffffff16815260200190815260200160002060009054906101000a900460ff16156119ba576040517f08c379a00000000000000000000000000000000000000000000000000000000081526004016119b190612ecf565b60405180910390fd5b60016004846040516119cc9190612b90565b908152602001604051809103902060020160008282546119ec9190612eef565b925050819055506001816002016000828254611a089190612eef565b9250508190555080600101339080600181540180825580915050600190039060005260206000200160009091909190916101000a81548173ffffffffffffffffffffffffffffffffffffffff021916908373ffffffffffffffffffffffffffffffffffffffff16021790555060018160040160003373ffffffffffffffffffffffffffffffffffffffff1673ffffffffffffffffffffffffffffffffffffffff16815260200190815260200160002060006101000a81548160ff021916908315150217905550505050565b6000600482604051611ae59190612b90565b9081526020016040518091039020600201549050919050565b611b088282611ba6565b15611b48576040517f08c379a0000000000000000000000000000000000000000000000000000000008152600401611b3f90612f6f565b60405180910390fd5b60018260000160008373ffffffffffffffffffffffffffffffffffffffff1673ffffffffffffffffffffffffffffffffffffffff16815260200190815260200160002060006101000a81548160ff0219169083151502179055505050565b60008073ffffffffffffffffffffffffffffffffffffffff168273ffffffffffffffffffffffffffffffffffffffff1603611c16576040517f08c379a0000000000000000000000000000000000000000000000000000000008152600401611c0d90613001565b60405180910390fd5b8260000160008373ffffffffffffffffffffffffffffffffffffffff1673ffffffffffffffffffffffffffffffffffffffff16815260200190815260200160002060009054906101000a900460ff16905092915050565b6040518060800160405280600073ffffffffffffffffffffffffffffffffffffffff16815260200160608152602001606081526020016000151581525090565b60405180606001604052806060815260200160608152602001600081525090565b600081519050919050565b600082825260208201905092915050565b6000819050602082019050919050565b600073ffffffffffffffffffffffffffffffffffffffff82169050919050565b6000611d2582611cfa565b9050919050565b611d3581611d1a565b82525050565b600081519050919050565b600082825260208201905092915050565b60005b83811015611d75578082015181840152602081019050611d5a565b60008484015250505050565b6000601f19601f8301169050919050565b6000611d9d82611d3b565b611da78185611d46565b9350611db7818560208601611d57565b611dc081611d81565b840191505092915050565b60008115159050919050565b611de081611dcb565b82525050565b6000608083016000830151611dfe6000860182611d2c565b5060208301518482036020860152611e168282611d92565b91505060408301518482036040860152611e308282611d92565b9150506060830151611e456060860182611dd7565b508091505092915050565b6000611e5c8383611de6565b905092915050565b6000602082019050919050565b6000611e7c82611cce565b611e868185611cd9565b935083602082028501611e9885611cea565b8060005b85811015611ed45784840389528151611eb58582611e50565b9450611ec083611e64565b925060208a01995050600181019050611e9c565b50829750879550505050505092915050565b60006020820190508181036000830152611f008184611e71565b905092915050565b600081519050919050565b600082825260208201905092915050565b6000819050602082019050919050565b6000819050919050565b611f4781611f34565b82525050565b60006060830160008301518482036000860152611f6a8282611d92565b91505060208301518482036020860152611f848282611d92565b9150506040830151611f996040860182611f3e565b508091505092915050565b6000611fb08383611f4d565b905092915050565b6000602082019050919050565b6000611fd082611f08565b611fda8185611f13565b935083602082028501611fec85611f24565b8060005b8581101561202857848403895281516120098582611fa4565b945061201483611fb8565b925060208a01995050600181019050611ff0565b50829750879550505050505092915050565b600060208201905081810360008301526120548184611fc5565b905092915050565b6000604051905090565b600080fd5b600080fd5b600080fd5b600080fd5b7f4e487b7100000000000000000000000000000000000000000000000000000000600052604160045260246000fd5b6120b282611d81565b810181811067ffffffffffffffff821117156120d1576120d061207a565b5b80604052505050565b60006120e461205c565b90506120f082826120a9565b919050565b600067ffffffffffffffff8211156121105761210f61207a565b5b61211982611d81565b9050602081019050919050565b82818337600083830152505050565b6000612148612143846120f5565b6120da565b90508281526020810184848401111561216457612163612075565b5b61216f848285612126565b509392505050565b600082601f83011261218c5761218b612070565b5b813561219c848260208601612135565b91505092915050565b600080604083850312156121bc576121bb612066565b5b600083013567ffffffffffffffff8111156121da576121d961206b565b5b6121e685828601612177565b925050602083013567ffffffffffffffff8111156122075761220661206b565b5b61221385828601612177565b9150509250929050565b61222681611f34565b811461223157600080fd5b50565b6000813590506122438161221d565b92915050565b60006020828403121561225f5761225e612066565b5b600061226d84828501612234565b91505092915050565b600082825260208201905092915050565b600061229282611d3b565b61229c8185612276565b93506122ac818560208601611d57565b6122b581611d81565b840191505092915050565b6122c981611f34565b82525050565b600060608201905081810360008301526122e98186612287565b905081810360208301526122fd8185612287565b905061230c60408301846122c0565b949350505050565b60006020828403121561232a57612329612066565b5b600082013567ffffffffffffffff8111156123485761234761206b565b5b61235484828501612177565b91505092915050565b600081519050919050565b600082825260208201905092915050565b6000819050602082019050919050565b60006123958383611d2c565b60208301905092915050565b6000602082019050919050565b60006123b98261235d565b6123c38185612368565b93506123ce83612379565b8060005b838110156123ff5781516123e68882612389565b97506123f1836123a1565b9250506001810190506123d2565b5085935050505092915050565b600060608201905081810360008301526124268186611fc5565b9050818103602083015261243a81856123ae565b905061244960408301846122c0565b949350505050565b61245a81611d1a565b811461246557600080fd5b50565b60008135905061247781612451565b92915050565b60006020828403121561249357612492612066565b5b60006124a184828501612468565b91505092915050565b60006080830160008301516124c26000860182611d2c565b50602083015184820360208601526124da8282611d92565b915050604083015184820360408601526124f48282611d92565b91505060608301516125096060860182611dd7565b508091505092915050565b6000602082019050818103600083015261252e81846124aa565b905092915050565b600060408201905081810360008301526125508185612287565b905061255f60208301846122c0565b9392505050565b60008060006060848603121561257f5761257e612066565b5b600084013567ffffffffffffffff81111561259d5761259c61206b565b5b6125a986828701612177565b935050602084013567ffffffffffffffff8111156125ca576125c961206b565b5b6125d686828701612177565b925050604084013567ffffffffffffffff8111156125f7576125f661206b565b5b61260386828701612177565b9150509250925092565b61261681611dcb565b82525050565b6000602082019050612631600083018461260d565b92915050565b6000819050919050565b61264a81612637565b82525050565b60006020820190506126656000830184612641565b92915050565b600060208201905061268060008301846122c0565b92915050565b7f4e487b7100000000000000000000000000000000000000000000000000000000600052603260045260246000fd5b7f4e487b7100000000000000000000000000000000000000000000000000000000600052602260045260246000fd5b600060028204905060018216806126fc57607f821691505b60208210810361270f5761270e6126b5565b5b50919050565b7f4e487b7100000000000000000000000000000000000000000000000000000000600052601160045260246000fd5b600061274f82611f34565b91507fffffffffffffffffffffffffffffffffffffffffffffffffffffffffffffffff820361278157612780612715565b5b600182019050919050565b7f436f6e6e65637465642061732041646d696e0000000000000000000000000000600082015250565b60006127c2601283612276565b91506127cd8261278c565b602082019050919050565b600060208201905081810360008301526127f1816127b5565b9050919050565b7f416c7265616479206578697374696e6720757365720000000000000000000000600082015250565b600061282e601583612276565b9150612839826127f8565b602082019050919050565b6000602082019050818103600083015261285d81612821565b9050919050565b60008190508160005260206000209050919050565b60006020601f8301049050919050565b60008160020a8302905092915050565b6000600883026128c97fffffffffffffffffffffffffffffffffffffffffffffffffffffffffffffffff82612889565b6128d38683612889565b95508019841693508086168417925050509392505050565b6000819050919050565b600061291061290b61290684611f34565b6128eb565b611f34565b9050919050565b6000819050919050565b61292a836128f5565b61293e61293682612917565b848454612899565b825550505050565b600090565b612953612946565b61295e818484612921565b505050565b5b818110156129825761297760008261294b565b600181019050612964565b5050565b601f8211156129c75761299881612864565b6129a184612879565b810160208510156129b0578190505b6129c46129bc85612879565b830182612963565b50505b505050565b60008160020a8304905092915050565b60006129ed600019846008026129cc565b1980831691505092915050565b6000612a0683836129dc565b9150826002028217905092915050565b612a1f82611d3b565b67ffffffffffffffff811115612a3857612a3761207a565b5b612a4282546126e4565b612a4d828285612986565b600060209050601f831160018114612a805760008415612a6e578287015190505b612a7885826129fa565b865550612ae0565b601f198416612a8e86612864565b60005b82811015612ab657848901518255600182019150602085019450602081019050612a91565b86831015612ad35784890151612acf601f8916826129dc565b8355505b6001600288020188555050505b505050505050565b7f6f6e6c792061646d696e2063616e2061646420456c656374696f6e0000000000600082015250565b6000612b1e601b83612276565b9150612b2982612ae8565b602082019050919050565b60006020820190508181036000830152612b4d81612b11565b9050919050565b600081905092915050565b6000612b6a82611d3b565b612b748185612b54565b9350612b84818560208601611d57565b80840191505092915050565b6000612b9c8284612b5f565b915081905092915050565b60008154612bb4816126e4565b612bbe8186612b54565b94506001821660008114612bd95760018114612bee57612c21565b60ff1983168652811515820286019350612c21565b612bf785612864565b60005b83811015612c1957815481890152600182019150602081019050612bfa565b838801955050505b50505092915050565b6000612c368284612ba7565b915081905092915050565b7f4e6f742061207265676973746572656420766f74657200000000000000000000600082015250565b6000612c77601683612276565b9150612c8282612c41565b602082019050919050565b60006020820190508181036000830152612ca681612c6a565b9050919050565b7f6f6e6c792061646d696e2063616e206164642043616e64696461746573000000600082015250565b6000612ce3601d83612276565b9150612cee82612cad565b602082019050919050565b60006020820190508181036000830152612d1281612cd6565b9050919050565b600081549050612d28816126e4565b9050919050565b818103612d3d575050612e15565b612d4682612d19565b67ffffffffffffffff811115612d5f57612d5e61207a565b5b612d6982546126e4565b612d74828285612986565b6000601f831160018114612da35760008415612d91578287015490505b612d9b85826129fa565b865550612e0e565b601f198416612db187612864565b9650612dbc86612864565b60005b82811015612de457848901548255600182019150600185019450602081019050612dbf565b86831015612e015784890154612dfd601f8916826129dc565b8355505b6001600288020188555050505b5050505050505b565b7f55736572206e6f74207265676973746572656400000000000000000000000000600082015250565b6000612e4d601383612276565b9150612e5882612e17565b602082019050919050565b60006020820190508181036000830152612e7c81612e40565b9050919050565b7f5573657220616c726561647920766f7465640000000000000000000000000000600082015250565b6000612eb9601283612276565b9150612ec482612e83565b602082019050919050565b60006020820190508181036000830152612ee881612eac565b9050919050565b6000612efa82611f34565b9150612f0583611f34565b9250828201905080821115612f1d57612f1c612715565b5b92915050565b7f526f6c65733a206163636f756e7420616c72656164792068617320726f6c6500600082015250565b6000612f59601f83612276565b9150612f6482612f23565b602082019050919050565b60006020820190508181036000830152612f8881612f4c565b9050919050565b7f526f6c65733a206163636f756e7420697320746865207a65726f20616464726560008201527f7373000000000000000000000000000000000000000000000000000000000000602082015250565b6000612feb602283612276565b9150612ff682612f8f565b604082019050919050565b6000602082019050818103600083015261301a81612fde565b905091905056fea264697066735822122033cf0e272968804513ef69f88df02ae9db7867109e6f9a9b21c8204030fa87ff64736f6c63430008110033",
  "immutableReferences": {},
  "source": "// SPDX-License-Identifier: MIT\r\npragma solidity >=0.4.22 <0.9.0;\r\n\r\nimport './Roles.sol';\r\n\r\ncontract Voting {\r\n\r\n    using Roles for Roles.Role;\r\n\r\n    Roles.Role private adminRole;\r\n    Roles.Role private userRole;\r\n\r\n\r\n    struct User {\r\n        address key;\r\n        string nationalId;\r\n        string pwd;\r\n        bool isActive;\r\n    }\r\n\r\n    struct Candidate {\r\n        string id;\r\n        string name;\r\n        uint voteCount;\r\n    }\r\n\r\n    struct Election {\r\n        string id;\r\n        address[] voters;\r\n        uint votes;\r\n        Candidate[] candidates;\r\n        mapping(address => bool) Voters;\r\n    }\r\n\r\n    mapping(string => Election) ElectionsMap;\r\n    mapping(address => User) UsersMap;\r\n    mapping(string => Candidate) CandidatesMap;\r\n    // mapping(address => bool) Voters;\r\n\r\n    Candidate[] public candidates;\r\n    Election[] public elections;\r\n    address[] private users;\r\n    address adminId;\r\n    string adminPwd;\r\n\r\n    constructor() {\r\n        adminId = msg.sender;\r\n        adminRole.add(adminId);\r\n        adminPwd = \"admin\";\r\n    }\r\n\r\n    function isAdmin() public view returns (bool){\r\n        return adminRole.has(msg.sender);\r\n    }\r\n\r\n    function isVoter() public view returns (bool){\r\n        return userRole.has(msg.sender);\r\n    }\r\n\r\n\r\n    function adminLogin(string memory pwd) public view returns (int){\r\n        if (keccak256(abi.encodePacked(pwd)) == keccak256(abi.encodePacked(adminPwd))) {\r\n            return 1;\r\n        }\r\n        else {\r\n            return 0;\r\n        }\r\n    }\r\n\r\n    function addElection(string memory id) public {\r\n        require(adminRole.has(msg.sender), \"only admin can add Election\");\r\n        Election storage election = ElectionsMap[id];\r\n        election.id = id;\r\n        election.votes = 0;\r\n\r\n    }\r\n\r\n    function getElection(string memory eId) public view returns (Candidate[] memory, address[] memory, uint){\r\n        Election storage election = ElectionsMap[eId];\r\n\r\n        return (election.candidates, election.voters, election.votes);\r\n    }\r\n\r\n    function addUser(string memory nationalId, string memory pwd) public {\r\n        if (adminRole.has(msg.sender)) revert(\"Connected as Admin\");\r\n        if (userRole.has(msg.sender)) revert(\"Already existing user\");\r\n\r\n        User storage user = UsersMap[msg.sender];\r\n        user.nationalId = nationalId;\r\n        user.key = msg.sender;\r\n        user.pwd = pwd;\r\n        user.isActive = false;\r\n\r\n        users.push(msg.sender);\r\n\r\n        userRole.add(msg.sender);\r\n    }\r\n\r\n    function verifyUser(address _voter) public {\r\n        UsersMap[_voter].isActive = true;\r\n    }\r\n\r\n    function login(string memory nationalId, string memory pwd) public view returns (User memory){\r\n        require(!adminRole.has(msg.sender), \"Connected as Admin\");\r\n        require(userRole.has(msg.sender), \"Not a registered voter\");\r\n\r\n        User memory user = UsersMap[msg.sender];\r\n\r\n        if (keccak256(abi.encodePacked(user.nationalId)) ==\r\n        keccak256(abi.encodePacked(nationalId)) &&\r\n            keccak256(abi.encodePacked(user.pwd)) ==\r\n            keccak256(abi.encodePacked(pwd)))\r\n            return user;\r\n        return UsersMap[address(0)];\r\n    }\r\n\r\n    function getUsers() public view returns (User[] memory){\r\n        User[] memory _users = new User[](users.length);\r\n        for (uint i = 0; i < users.length; i++) {\r\n            _users[i] = UsersMap[users[i]];\r\n        }\r\n        return _users;\r\n    }\r\n\r\n    function addCandidate(string memory id, string memory name, string memory eId) public {\r\n        require(adminRole.has(msg.sender), \"only admin can add Candidates\");\r\n        Candidate storage candidate = CandidatesMap[id];\r\n        candidate.id = id;\r\n        candidate.name = name;\r\n        candidate.voteCount = 0;\r\n\r\n        Election storage election = ElectionsMap[eId];\r\n        election.candidates.push(candidate);\r\n\r\n        candidates.push(candidate);\r\n    }\r\n\r\n    function getCandidates() public view returns (Candidate[] memory){\r\n        return candidates;\r\n    }\r\n\r\n    function getCandidateVotes(string memory id) public view returns (uint){\r\n        return CandidatesMap[id].voteCount;\r\n    }\r\n\r\n    function vote(string memory cId, string memory eId) public {\r\n        require(userRole.has(msg.sender), \"User not registered\");\r\n        Election storage election = ElectionsMap[eId];\r\n        require(!election.Voters[msg.sender], \"User already voted\");\r\n        CandidatesMap[cId].voteCount += 1;\r\n        election.votes += 1;\r\n        election.voters.push(msg.sender);\r\n        election.Voters[msg.sender] = true;\r\n    }\r\n\r\n    function getResult(string memory _eId) public view returns (Candidate[] memory)  {\r\n        Election storage _election = ElectionsMap[_eId];\r\n        Candidate[] memory _candidates = new Candidate[](_election.candidates.length);\r\n\r\n        for (uint i = 0; i < _election.candidates.length; i++) {\r\n            _candidates[i] = CandidatesMap[_election.candidates[i].id];\r\n        }\r\n\r\n        return _candidates;\r\n    }\r\n\r\n}",
  "sourcePath": "/Users/priyapanchariya/Documents/BIT/Year 3/FYP/E-BALLOT/Client/contracts/Voting.sol",
  "compiler": {
    "name": "solc",
    "version": "0.8.17+commit.8df45f5f.Emscripten.clang"
  },
  "schemaVersion": "3.4.12",
  "updatedAt": "2023-04-10T13:20:38.662Z",
  "networkType": "ethereum",
  "devdoc": {
    "kind": "dev",
    "methods": {},
    "version": 1
  },
  "userdoc": {
    "kind": "user",
    "methods": {},
    "version": 1
  }
}